{
	"data": {
		"bytecode": {
			"linkReferences": {},
			"object": "608060405234801561001057600080fd5b50612311806100206000396000f3fe608060405234801561001057600080fd5b506004361061002b5760003560e01c80631e8e1e1314610030575b600080fd5b61004a60048036038101906100459190612116565b610060565b6040516100579190612191565b60405180910390f35b6000611f98565b600080600184846000805b821561009c5782840591508482028603905084955080945082820284039050829350809250610072565b60018411156100aa57600080fd5b60008612156100b95788860195505b85965050505050505092915050565b60405181602084028301815160208301925060005b82841015610120578185527f30644e72e131a029b85045b68181585d2833e84879b9709143e1f593f00000018451830991506020850194506020840193506100dd565b61014a7f30644e72e131a029b85045b68181585d2833e84879b9709143e1f593f000000183610067565b91506020850394506020840393508592505b828411156101c6577f30644e72e131a029b85045b68181585d2833e84879b9709143e1f593f00000018551830990507f30644e72e131a029b85045b68181585d2833e84879b9709143e1f593f000000184518309915080845260208503945060208403935061015c565b81845250505050505050565b7f30644e72e131a029b85045b68181585d2833e84879b9709143e1f593f00000018110610203576000805260206000f35b50565b61032081511461021a576000805260206000f35b6102286102608201516101d2565b6102366102808201516101d2565b6102446102a08201516101d2565b6102526102c08201516101d2565b6102606102e08201516101d2565b61026e6103008201516101d2565b61027c6103208201516101d2565b50565b60008060208501516103408501526040850151610360850152606085015161038085015260808501516103a085015260a08501516103c085015260208301516103e08501526020800183015161040085015260406020018301516104208501526060602001830151610440850152608060200183015161046085015260a06020018301516104808501527f30644e72e131a029b85045b68181585d2833e84879b9709143e1f593f00000016101606103408601200690508060208501527f30644e72e131a029b85045b68181585d2833e84879b9709143e1f593f00000016020808601200660408501527f30644e72e131a029b85045b68181585d2833e84879b9709143e1f593f0000001604060e08501200660008501527f30644e72e131a029b85045b68181585d2833e84879b9709143e1f593f000000160c06101208501200691508160608501527f30644e72e131a029b85045b68181585d2833e84879b9709143e1f593f000000182820960a08501527f30644e72e131a029b85045b68181585d2833e84879b9709143e1f593f000000182830991507f30644e72e131a029b85045b68181585d2833e84879b9709143e1f593f000000182830991507f30644e72e131a029b85045b68181585d2833e84879b9709143e1f593f000000182830991507f30644e72e131a029b85045b68181585d2833e84879b9709143e1f593f000000182830991507f30644e72e131a029b85045b68181585d2833e84879b9709143e1f593f000000182830991507f30644e72e131a029b85045b68181585d2833e84879b9709143e1f593f000000182830991507f30644e72e131a029b85045b68181585d2833e84879b9709143e1f593f000000182830991507f30644e72e131a029b85045b68181585d2833e84879b9709143e1f593f000000182830991507f30644e72e131a029b85045b68181585d2833e84879b9709143e1f593f000000182830991507f30644e72e131a029b85045b68181585d2833e84879b9709143e1f593f000000182830991507f30644e72e131a029b85045b68181585d2833e84879b9709143e1f593f000000182830991507f30644e72e131a029b85045b68181585d2833e84879b9709143e1f593f000000182830991507f30644e72e131a029b85045b68181585d2833e84879b9709143e1f593f000000182830991508160808501527f30644e72e131a029b85045b68181585d2833e84879b9709143e1f593f000000180600184030106915081610260850152816102808501527f30644e72e131a029b85045b68181585d2833e84879b9709143e1f593f000000160e0610260850120068060c08601527f30644e72e131a029b85045b68181585d2833e84879b9709143e1f593f000000181820992508260e08601527f30644e72e131a029b85045b68181585d2833e84879b9709143e1f593f00000018184099250826101008601527f30644e72e131a029b85045b68181585d2833e84879b9709143e1f593f00000018184099250826101208601527f30644e72e131a029b85045b68181585d2833e84879b9709143e1f593f00000018184099250826101408601527f30644e72e131a029b85045b68181585d2833e84879b9709143e1f593f00000018184099250826101608601527f30644e72e131a029b85045b68181585d2833e84879b9709143e1f593f000000160806101e086012006610180860152505050505050565b60017f30644e72e131a029b85045b68181585d2833e84879b9709143e1f593f0000001807f30644e72e131a029b85045b68181585d2833e84879b9709143e1f593f0000001836060860151030106612000096102a08301527f30644e72e131a029b85045b68181585d2833e84879b9709143e1f593f00000017e6fab49b869ae62001deac878b2667bd31bf3e28e3a2d764aa49b8d9bbdd310820990507f30644e72e131a029b85045b68181585d2833e84879b9709143e1f593f0000001807f30644e72e131a029b85045b68181585d2833e84879b9709143e1f593f0000001836060860151030106612000096102c08301527f30644e72e131a029b85045b68181585d2833e84879b9709143e1f593f00000017e6fab49b869ae62001deac878b2667bd31bf3e28e3a2d764aa49b8d9bbdd310820990507f30644e72e131a029b85045b68181585d2833e84879b9709143e1f593f0000001807f30644e72e131a029b85045b68181585d2833e84879b9709143e1f593f0000001836060860151030106612000096102e08301527f30644e72e131a029b85045b68181585d2833e84879b9709143e1f593f00000017e6fab49b869ae62001deac878b2667bd31bf3e28e3a2d764aa49b8d9bbdd310820990507f30644e72e131a029b85045b68181585d2833e84879b9709143e1f593f0000001807f30644e72e131a029b85045b68181585d2833e84879b9709143e1f593f0000001836060860151030106612000096103008301527f30644e72e131a029b85045b68181585d2833e84879b9709143e1f593f00000017e6fab49b869ae62001deac878b2667bd31bf3e28e3a2d764aa49b8d9bbdd310820990507f30644e72e131a029b85045b68181585d2833e84879b9709143e1f593f0000001807f30644e72e131a029b85045b68181585d2833e84879b9709143e1f593f000000183606086015103010661200009610320830152610a39600661028084016100c8565b610260820151600191507f30644e72e131a029b85045b68181585d2833e84879b9709143e1f593f0000001816102a0850151096102a08401527f30644e72e131a029b85045b68181585d2833e84879b9709143e1f593f00000017e6fab49b869ae62001deac878b2667bd31bf3e28e3a2d764aa49b8d9bbdd310830991507f30644e72e131a029b85045b68181585d2833e84879b9709143e1f593f000000180826102c08601510983096102c08401527f30644e72e131a029b85045b68181585d2833e84879b9709143e1f593f00000017e6fab49b869ae62001deac878b2667bd31bf3e28e3a2d764aa49b8d9bbdd310830991507f30644e72e131a029b85045b68181585d2833e84879b9709143e1f593f000000180826102e08601510983096102e08401527f30644e72e131a029b85045b68181585d2833e84879b9709143e1f593f00000017e6fab49b869ae62001deac878b2667bd31bf3e28e3a2d764aa49b8d9bbdd310830991507f30644e72e131a029b85045b68181585d2833e84879b9709143e1f593f000000180826103008601510983096103008401527f30644e72e131a029b85045b68181585d2833e84879b9709143e1f593f00000017e6fab49b869ae62001deac878b2667bd31bf3e28e3a2d764aa49b8d9bbdd310830991507f30644e72e131a029b85045b68181585d2833e84879b9709143e1f593f00000018082610320860151098309610320840152505050565b60007f30644e72e131a029b85045b68181585d2833e84879b9709143e1f593f0000001807f30644e72e131a029b85045b68181585d2833e84879b9709143e1f593f000000160208601516102a0860151098303010690507f30644e72e131a029b85045b68181585d2833e84879b9709143e1f593f0000001807f30644e72e131a029b85045b68181585d2833e84879b9709143e1f593f000000160408601516102c0860151098303010690507f30644e72e131a029b85045b68181585d2833e84879b9709143e1f593f0000001807f30644e72e131a029b85045b68181585d2833e84879b9709143e1f593f000000160608601516102e0860151098303010690507f30644e72e131a029b85045b68181585d2833e84879b9709143e1f593f0000001807f30644e72e131a029b85045b68181585d2833e84879b9709143e1f593f00000016080860151610300860151098303010690507f30644e72e131a029b85045b68181585d2833e84879b9709143e1f593f0000001807f30644e72e131a029b85045b68181585d2833e84879b9709143e1f593f000000160a086015161032086015109830301069050806101a0830152505050565b60008060007f30644e72e131a029b85045b68181585d2833e84879b9709143e1f593f00000016101a08601516103208601510892507f30644e72e131a029b85045b68181585d2833e84879b9709143e1f593f000000160208601516102c08601510991507f30644e72e131a029b85045b68181585d2833e84879b9709143e1f593f0000001610260850151830891507f30644e72e131a029b85045b68181585d2833e84879b9709143e1f593f00000016040860151830891507f30644e72e131a029b85045b68181585d2833e84879b9709143e1f593f000000160208601516102e08601510990507f30644e72e131a029b85045b68181585d2833e84879b9709143e1f593f0000001610280850151820890507f30644e72e131a029b85045b68181585d2833e84879b9709143e1f593f00000016040860151820890507f30644e72e131a029b85045b68181585d2833e84879b9709143e1f593f000000181830991507f30644e72e131a029b85045b68181585d2833e84879b9709143e1f593f000000160408601516102a08601510890507f30644e72e131a029b85045b68181585d2833e84879b9709143e1f593f000000181830991507f30644e72e131a029b85045b68181585d2833e84879b9709143e1f593f0000001610300850151830991507f30644e72e131a029b85045b68181585d2833e84879b9709143e1f593f00000016000860151830991507f30644e72e131a029b85045b68181585d2833e84879b9709143e1f593f000000160008601516102a08701510990507f30644e72e131a029b85045b68181585d2833e84879b9709143e1f593f00000016000860151820990507f30644e72e131a029b85045b68181585d2833e84879b9709143e1f593f000000181830891507f30644e72e131a029b85045b68181585d2833e84879b9709143e1f593f0000001827f30644e72e131a029b85045b68181585d2833e84879b9709143e1f593f00000018501030692507f30644e72e131a029b85045b68181585d2833e84879b9709143e1f593f000000161028086015184099250826101c08601525050505050565b81518152602082015160208201525050565b6040518151815260208201516020820152825160408201526020830151606082015260408260808360066107d05a03fa80611169576000805260206000f35b50505050565b6000604051835181526020840151602082015284604082015260408160608360076107d05a03fa9150816111a7576000805260206000f35b825160408201526020830151606082015260408360808360066107d05a03fa9150816111d7576000805260206000f35b5050505050565b600060405183815284602082015285604082015260408160608360076107d05a03fa915081611211576000805260206000f35b825160408201526020830151606082015260408360808360066107d05a03fa915081611241576000805260206000f35b505050505050565b600060405183815284602082015285604082015260408360608360076107d05a03fa91508161127c576000805260206000f35b505050505050565b6101e082016112976101e0830182611118565b6112ab61018084015161022084018361116f565b505050565b60008061022084017f30644e72e131a029b85045b68181585d2833e84879b9709143e1f593f000000160c0860151610260860151099250611333837f0ddc64ec64fef5b5ba2a1aa3fbe77966da3195695d2906b3548f1a2db4c4e2557f0741de6aa4bfede18f1e3e0fffdcd33893db9e2ed6484baf8945f6b613afe89884611249565b7f30644e72e131a029b85045b68181585d2833e84879b9709143e1f593f0000001610280850151840992506113aa837f265695a67b346301ceb363655c5cc8f23792d71c4603da0c839de2c0e7e516d77f04f5a6522880a6f63cd27c670e8d1d588491a64ae3e2ba54c5cce20da0a8f8ee846111de565b7f30644e72e131a029b85045b68181585d2833e84879b9709143e1f593f000000160c0860151610280860151099250611425837f0a89064f245dd44981eadadfcfe276069c56b3e01f603afbd1546d3ea1a477837f01c053b585bf8c2d333ef9df7320055853d424b505f4f3ed8543ed0fe2c7dbd3846111de565b7f30644e72e131a029b85045b68181585d2833e84879b9709143e1f593f000000160c08601516102a08601510992506114a0837f1a93c1bb374cb080205eca5aa0a2715a0c3e3ca3e8b4ca55c67510410530fb3c7f09b3950dbe66e0c259d5a0e13840bef1f324100895a6f85ee4e395176381ecc9846111de565b60c085015192506114f3837f27b2296d59cc6cc2816ec1db0785b80c3be4b2686ece4159d13f7b2854866b517f0230ad93d4814194f3678a9cedb99455467a520fe3a553438774ba3309492a6f846111de565b7f30644e72e131a029b85045b68181585d2833e84879b9709143e1f593f000000160a08601516102608601510892507f30644e72e131a029b85045b68181585d2833e84879b9709143e1f593f00000016040860151840892507f30644e72e131a029b85045b68181585d2833e84879b9709143e1f593f000000160a086015160020991507f30644e72e131a029b85045b68181585d2833e84879b9709143e1f593f0000001610280850151830891507f30644e72e131a029b85045b68181585d2833e84879b9709143e1f593f00000016040860151830891507f30644e72e131a029b85045b68181585d2833e84879b9709143e1f593f000000182840992507f30644e72e131a029b85045b68181585d2833e84879b9709143e1f593f000000160a086015160030991507f30644e72e131a029b85045b68181585d2833e84879b9709143e1f593f00000016102a0850151830891507f30644e72e131a029b85045b68181585d2833e84879b9709143e1f593f00000016040860151830891507f30644e72e131a029b85045b68181585d2833e84879b9709143e1f593f000000182840992507f30644e72e131a029b85045b68181585d2833e84879b9709143e1f593f00000016000860151840992507f30644e72e131a029b85045b68181585d2833e84879b9709143e1f593f000000160c0860151840992507f30644e72e131a029b85045b68181585d2833e84879b9709143e1f593f000000160008601516102a08701510991507f30644e72e131a029b85045b68181585d2833e84879b9709143e1f593f00000016000860151830991507f30644e72e131a029b85045b68181585d2833e84879b9709143e1f593f000000160c0860151830991507f30644e72e131a029b85045b68181585d2833e84879b9709143e1f593f000000182840892507f30644e72e131a029b85045b68181585d2833e84879b9709143e1f593f0000001610180860151840892506117ce8360e086018361116f565b7f30644e72e131a029b85045b68181585d2833e84879b9709143e1f593f00000016102c085015160208701510992507f30644e72e131a029b85045b68181585d2833e84879b9709143e1f593f0000001610260850151840892507f30644e72e131a029b85045b68181585d2833e84879b9709143e1f593f00000016040860151840892507f30644e72e131a029b85045b68181585d2833e84879b9709143e1f593f00000016102e085015160208701510991507f30644e72e131a029b85045b68181585d2833e84879b9709143e1f593f0000001610280850151830891507f30644e72e131a029b85045b68181585d2833e84879b9709143e1f593f00000016040860151830891507f30644e72e131a029b85045b68181585d2833e84879b9709143e1f593f000000182840992507f30644e72e131a029b85045b68181585d2833e84879b9709143e1f593f00000016000860151840992507f30644e72e131a029b85045b68181585d2833e84879b9709143e1f593f000000160c0860151840992507f30644e72e131a029b85045b68181585d2833e84879b9709143e1f593f00000016020860151840992507f30644e72e131a029b85045b68181585d2833e84879b9709143e1f593f0000001610300850151840992507f30644e72e131a029b85045b68181585d2833e84879b9709143e1f593f0000001837f30644e72e131a029b85045b68181585d2833e84879b9709143e1f593f000000103069250611a38837f0e74d86f1af0f0d37ab07210cde502978fb729779eaf88331c6fb5b89b5a6cb97f26a08d8e70826af781b344f52402265622582f45c26e4ce38d9f7f9025c81fff846111de565b611a4661012085018261112a565b60808501519250611a5c8361016086018361116f565b7f30644e72e131a029b85045b68181585d2833e84879b9709143e1f593f00000018384099250611a91836101a086018361116f565b611aa360e0860151602086018361116f565b611ab6610100860151606086018361116f565b611ac961012086015160a086018361116f565b611b1a6101408601517f218d29c7d20e9cc6610f0bff3934fb0b980ef2521ec498eb05df20f7fd97778c7f2fddcac2daeb12c2720187606868e7078b4cb79b45415c7056d3d7a277082d0b846111de565b611b6b6101608601517f139c03af025a8236e5648c62cb1fe777c5a963e3b85c578fbcc60d6c7d3438d67f0f8629c8b8050b37587f30f759ad91d97f48682ff2331302cc50402227abb253846111de565b6101c085015192507f30644e72e131a029b85045b68181585d2833e84879b9709143e1f593f00000018060c087015161032087015109840892507f30644e72e131a029b85045b68181585d2833e84879b9709143e1f593f00000018060e087015161026087015109840892507f30644e72e131a029b85045b68181585d2833e84879b9709143e1f593f00000018061010087015161028087015109840892507f30644e72e131a029b85045b68181585d2833e84879b9709143e1f593f0000001806101208701516102a087015109840892507f30644e72e131a029b85045b68181585d2833e84879b9709143e1f593f0000001806101408701516102c087015109840892507f30644e72e131a029b85045b68181585d2833e84879b9709143e1f593f0000001806101608701516102e087015109840892507f30644e72e131a029b85045b68181585d2833e84879b9709143e1f593f00000018061018087015161030087015109840892507f30644e72e131a029b85045b68181585d2833e84879b9709143e1f593f0000001837f30644e72e131a029b85045b68181585d2833e84879b9709143e1f593f000000103069250611d2b8360026001846111de565b60608501519250611d41836101e086018361116f565b7f30644e72e131a029b85045b68181585d2833e84879b9709143e1f593f000000160608601516101808701510992507f30644e72e131a029b85045b68181585d2833e84879b9709143e1f593f00000017e6fab49b869ae62001deac878b2667bd31bf3e28e3a2d764aa49b8d9bbdd31084099250611dc48361022086018361116f565b5050505050565b60006040516101e0830151815260206101e08401015160208201527f0a6a1935df795d32d04c19ad651d34c0ad64f4062df4f8e84d07c8ee170e1dce60408201527f19439d3dd0b08cb10777679ac9db57cccd6460f3fc802557e8fca5bc0403b7c560608201527f2785488717f1d0f28f4ec5d2fc6a21ae92d9c8253e1aee898163131bad2e272160808201527f1ca6522c0c0b310952d5132103d40da2fceec4306150d28882d4ed087a88e2a560a082015261022083015160c08201526020610220840101517f30644e72e131a029b85045b68181585d97816a916871ca8d3c208c16d87cfd47817f30644e72e131a029b85045b68181585d97816a916871ca8d3c208c16d87cfd47030690508060e08301527f198e9393920d483a7260bfb731fb5d25f1aa493335a9e71297e485b7aef312c26101008301527f1800deef121f1e76426a00665e5c4479674322d4f75edadd46debd5cd992f6ed6101208301527f090689d0585ff075ec9e99ad690c3395bc4b313370b38ef355acdadcd122975b6101408301527f12c85ea5db8c6deb4aab71808dcb408fe3d1e7690c43d37b4ce6cc0166fa7daa6101608301526020826101808460086107d05a03fa825181169350505050919050565b6040516103408101604052611fac84610206565b611fb783828661027f565b611fc081610766565b611fca8382610c53565b611fd48185610e0a565b611fde8185611284565b611fe881856112b0565b611ff181611dcb565b61034082036040528060005260206000f35b6000612016612011846121d1565b6121ac565b9050808382526020820190508285602086028201111561203557600080fd5b60005b85811015612065578161204b8882612101565b845260208401935060208301925050600181019050612038565b5050509392505050565b600061208261207d846121fd565b6121ac565b90508281526020810184848401111561209a57600080fd5b6120a5848285612244565b509392505050565b600082601f8301126120be57600080fd5b81356120ce848260208601612003565b91505092915050565b600082601f8301126120e857600080fd5b81356120f884826020860161206f565b91505092915050565b600081359050612110816122c4565b92915050565b6000806040838503121561212957600080fd5b600083013567ffffffffffffffff81111561214357600080fd5b61214f858286016120d7565b925050602083013567ffffffffffffffff81111561216c57600080fd5b612178858286016120ad565b9150509250929050565b61218b8161222e565b82525050565b60006020820190506121a66000830184612182565b92915050565b60006121b66121c7565b90506121c28282612253565b919050565b6000604051905090565b600067ffffffffffffffff8211156121ec576121eb612284565b5b602082029050602081019050919050565b600067ffffffffffffffff82111561221857612217612284565b5b612221826122b3565b9050602081019050919050565b60008115159050919050565b6000819050919050565b82818337600083830152505050565b61225c826122b3565b810181811067ffffffffffffffff8211171561227b5761227a612284565b5b80604052505050565b7f4e487b7100000000000000000000000000000000000000000000000000000000600052604160045260246000fd5b6000601f19601f8301169050919050565b6122cd8161223a565b81146122d857600080fd5b5056fea2646970667358221220871c9cb34ebada8c41bb0896d37e34f08cf2c1efae4d7d40a9d54919247e0ac764736f6c63430008040033",
			"opcodes": "PUSH1 0x80 PUSH1 0x40 MSTORE CALLVALUE DUP1 ISZERO PUSH2 0x10 JUMPI PUSH1 0x0 DUP1 REVERT JUMPDEST POP PUSH2 0x2311 DUP1 PUSH2 0x20 PUSH1 0x0 CODECOPY PUSH1 0x0 RETURN INVALID PUSH1 0x80 PUSH1 0x40 MSTORE CALLVALUE DUP1 ISZERO PUSH2 0x10 JUMPI PUSH1 0x0 DUP1 REVERT JUMPDEST POP PUSH1 0x4 CALLDATASIZE LT PUSH2 0x2B JUMPI PUSH1 0x0 CALLDATALOAD PUSH1 0xE0 SHR DUP1 PUSH4 0x1E8E1E13 EQ PUSH2 0x30 JUMPI JUMPDEST PUSH1 0x0 DUP1 REVERT JUMPDEST PUSH2 0x4A PUSH1 0x4 DUP1 CALLDATASIZE SUB DUP2 ADD SWAP1 PUSH2 0x45 SWAP2 SWAP1 PUSH2 0x2116 JUMP JUMPDEST PUSH2 0x60 JUMP JUMPDEST PUSH1 0x40 MLOAD PUSH2 0x57 SWAP2 SWAP1 PUSH2 0x2191 JUMP JUMPDEST PUSH1 0x40 MLOAD DUP1 SWAP2 SUB SWAP1 RETURN JUMPDEST PUSH1 0x0 PUSH2 0x1F98 JUMP JUMPDEST PUSH1 0x0 DUP1 PUSH1 0x1 DUP5 DUP5 PUSH1 0x0 DUP1 JUMPDEST DUP3 ISZERO PUSH2 0x9C JUMPI DUP3 DUP5 SDIV SWAP2 POP DUP5 DUP3 MUL DUP7 SUB SWAP1 POP DUP5 SWAP6 POP DUP1 SWAP5 POP DUP3 DUP3 MUL DUP5 SUB SWAP1 POP DUP3 SWAP4 POP DUP1 SWAP3 POP PUSH2 0x72 JUMP JUMPDEST PUSH1 0x1 DUP5 GT ISZERO PUSH2 0xAA JUMPI PUSH1 0x0 DUP1 REVERT JUMPDEST PUSH1 0x0 DUP7 SLT ISZERO PUSH2 0xB9 JUMPI DUP9 DUP7 ADD SWAP6 POP JUMPDEST DUP6 SWAP7 POP POP POP POP POP POP POP SWAP3 SWAP2 POP POP JUMP JUMPDEST PUSH1 0x40 MLOAD DUP2 PUSH1 0x20 DUP5 MUL DUP4 ADD DUP2 MLOAD PUSH1 0x20 DUP4 ADD SWAP3 POP PUSH1 0x0 JUMPDEST DUP3 DUP5 LT ISZERO PUSH2 0x120 JUMPI DUP2 DUP6 MSTORE PUSH32 0x30644E72E131A029B85045B68181585D2833E84879B9709143E1F593F0000001 DUP5 MLOAD DUP4 MULMOD SWAP2 POP PUSH1 0x20 DUP6 ADD SWAP5 POP PUSH1 0x20 DUP5 ADD SWAP4 POP PUSH2 0xDD JUMP JUMPDEST PUSH2 0x14A PUSH32 0x30644E72E131A029B85045B68181585D2833E84879B9709143E1F593F0000001 DUP4 PUSH2 0x67 JUMP JUMPDEST SWAP2 POP PUSH1 0x20 DUP6 SUB SWAP5 POP PUSH1 0x20 DUP5 SUB SWAP4 POP DUP6 SWAP3 POP JUMPDEST DUP3 DUP5 GT ISZERO PUSH2 0x1C6 JUMPI PUSH32 0x30644E72E131A029B85045B68181585D2833E84879B9709143E1F593F0000001 DUP6 MLOAD DUP4 MULMOD SWAP1 POP PUSH32 0x30644E72E131A029B85045B68181585D2833E84879B9709143E1F593F0000001 DUP5 MLOAD DUP4 MULMOD SWAP2 POP DUP1 DUP5 MSTORE PUSH1 0x20 DUP6 SUB SWAP5 POP PUSH1 0x20 DUP5 SUB SWAP4 POP PUSH2 0x15C JUMP JUMPDEST DUP2 DUP5 MSTORE POP POP POP POP POP POP POP JUMP JUMPDEST PUSH32 0x30644E72E131A029B85045B68181585D2833E84879B9709143E1F593F0000001 DUP2 LT PUSH2 0x203 JUMPI PUSH1 0x0 DUP1 MSTORE PUSH1 0x20 PUSH1 0x0 RETURN JUMPDEST POP JUMP JUMPDEST PUSH2 0x320 DUP2 MLOAD EQ PUSH2 0x21A JUMPI PUSH1 0x0 DUP1 MSTORE PUSH1 0x20 PUSH1 0x0 RETURN JUMPDEST PUSH2 0x228 PUSH2 0x260 DUP3 ADD MLOAD PUSH2 0x1D2 JUMP JUMPDEST PUSH2 0x236 PUSH2 0x280 DUP3 ADD MLOAD PUSH2 0x1D2 JUMP JUMPDEST PUSH2 0x244 PUSH2 0x2A0 DUP3 ADD MLOAD PUSH2 0x1D2 JUMP JUMPDEST PUSH2 0x252 PUSH2 0x2C0 DUP3 ADD MLOAD PUSH2 0x1D2 JUMP JUMPDEST PUSH2 0x260 PUSH2 0x2E0 DUP3 ADD MLOAD PUSH2 0x1D2 JUMP JUMPDEST PUSH2 0x26E PUSH2 0x300 DUP3 ADD MLOAD PUSH2 0x1D2 JUMP JUMPDEST PUSH2 0x27C PUSH2 0x320 DUP3 ADD MLOAD PUSH2 0x1D2 JUMP JUMPDEST POP JUMP JUMPDEST PUSH1 0x0 DUP1 PUSH1 0x20 DUP6 ADD MLOAD PUSH2 0x340 DUP6 ADD MSTORE PUSH1 0x40 DUP6 ADD MLOAD PUSH2 0x360 DUP6 ADD MSTORE PUSH1 0x60 DUP6 ADD MLOAD PUSH2 0x380 DUP6 ADD MSTORE PUSH1 0x80 DUP6 ADD MLOAD PUSH2 0x3A0 DUP6 ADD MSTORE PUSH1 0xA0 DUP6 ADD MLOAD PUSH2 0x3C0 DUP6 ADD MSTORE PUSH1 0x20 DUP4 ADD MLOAD PUSH2 0x3E0 DUP6 ADD MSTORE PUSH1 0x20 DUP1 ADD DUP4 ADD MLOAD PUSH2 0x400 DUP6 ADD MSTORE PUSH1 0x40 PUSH1 0x20 ADD DUP4 ADD MLOAD PUSH2 0x420 DUP6 ADD MSTORE PUSH1 0x60 PUSH1 0x20 ADD DUP4 ADD MLOAD PUSH2 0x440 DUP6 ADD MSTORE PUSH1 0x80 PUSH1 0x20 ADD DUP4 ADD MLOAD PUSH2 0x460 DUP6 ADD MSTORE PUSH1 0xA0 PUSH1 0x20 ADD DUP4 ADD MLOAD PUSH2 0x480 DUP6 ADD MSTORE PUSH32 0x30644E72E131A029B85045B68181585D2833E84879B9709143E1F593F0000001 PUSH2 0x160 PUSH2 0x340 DUP7 ADD KECCAK256 MOD SWAP1 POP DUP1 PUSH1 0x20 DUP6 ADD MSTORE PUSH32 0x30644E72E131A029B85045B68181585D2833E84879B9709143E1F593F0000001 PUSH1 0x20 DUP1 DUP7 ADD KECCAK256 MOD PUSH1 0x40 DUP6 ADD MSTORE PUSH32 0x30644E72E131A029B85045B68181585D2833E84879B9709143E1F593F0000001 PUSH1 0x40 PUSH1 0xE0 DUP6 ADD KECCAK256 MOD PUSH1 0x0 DUP6 ADD MSTORE PUSH32 0x30644E72E131A029B85045B68181585D2833E84879B9709143E1F593F0000001 PUSH1 0xC0 PUSH2 0x120 DUP6 ADD KECCAK256 MOD SWAP2 POP DUP2 PUSH1 0x60 DUP6 ADD MSTORE PUSH32 0x30644E72E131A029B85045B68181585D2833E84879B9709143E1F593F0000001 DUP3 DUP3 MULMOD PUSH1 0xA0 DUP6 ADD MSTORE PUSH32 0x30644E72E131A029B85045B68181585D2833E84879B9709143E1F593F0000001 DUP3 DUP4 MULMOD SWAP2 POP PUSH32 0x30644E72E131A029B85045B68181585D2833E84879B9709143E1F593F0000001 DUP3 DUP4 MULMOD SWAP2 POP PUSH32 0x30644E72E131A029B85045B68181585D2833E84879B9709143E1F593F0000001 DUP3 DUP4 MULMOD SWAP2 POP PUSH32 0x30644E72E131A029B85045B68181585D2833E84879B9709143E1F593F0000001 DUP3 DUP4 MULMOD SWAP2 POP PUSH32 0x30644E72E131A029B85045B68181585D2833E84879B9709143E1F593F0000001 DUP3 DUP4 MULMOD SWAP2 POP PUSH32 0x30644E72E131A029B85045B68181585D2833E84879B9709143E1F593F0000001 DUP3 DUP4 MULMOD SWAP2 POP PUSH32 0x30644E72E131A029B85045B68181585D2833E84879B9709143E1F593F0000001 DUP3 DUP4 MULMOD SWAP2 POP PUSH32 0x30644E72E131A029B85045B68181585D2833E84879B9709143E1F593F0000001 DUP3 DUP4 MULMOD SWAP2 POP PUSH32 0x30644E72E131A029B85045B68181585D2833E84879B9709143E1F593F0000001 DUP3 DUP4 MULMOD SWAP2 POP PUSH32 0x30644E72E131A029B85045B68181585D2833E84879B9709143E1F593F0000001 DUP3 DUP4 MULMOD SWAP2 POP PUSH32 0x30644E72E131A029B85045B68181585D2833E84879B9709143E1F593F0000001 DUP3 DUP4 MULMOD SWAP2 POP PUSH32 0x30644E72E131A029B85045B68181585D2833E84879B9709143E1F593F0000001 DUP3 DUP4 MULMOD SWAP2 POP PUSH32 0x30644E72E131A029B85045B68181585D2833E84879B9709143E1F593F0000001 DUP3 DUP4 MULMOD SWAP2 POP DUP2 PUSH1 0x80 DUP6 ADD MSTORE PUSH32 0x30644E72E131A029B85045B68181585D2833E84879B9709143E1F593F0000001 DUP1 PUSH1 0x1 DUP5 SUB ADD MOD SWAP2 POP DUP2 PUSH2 0x260 DUP6 ADD MSTORE DUP2 PUSH2 0x280 DUP6 ADD MSTORE PUSH32 0x30644E72E131A029B85045B68181585D2833E84879B9709143E1F593F0000001 PUSH1 0xE0 PUSH2 0x260 DUP6 ADD KECCAK256 MOD DUP1 PUSH1 0xC0 DUP7 ADD MSTORE PUSH32 0x30644E72E131A029B85045B68181585D2833E84879B9709143E1F593F0000001 DUP2 DUP3 MULMOD SWAP3 POP DUP3 PUSH1 0xE0 DUP7 ADD MSTORE PUSH32 0x30644E72E131A029B85045B68181585D2833E84879B9709143E1F593F0000001 DUP2 DUP5 MULMOD SWAP3 POP DUP3 PUSH2 0x100 DUP7 ADD MSTORE PUSH32 0x30644E72E131A029B85045B68181585D2833E84879B9709143E1F593F0000001 DUP2 DUP5 MULMOD SWAP3 POP DUP3 PUSH2 0x120 DUP7 ADD MSTORE PUSH32 0x30644E72E131A029B85045B68181585D2833E84879B9709143E1F593F0000001 DUP2 DUP5 MULMOD SWAP3 POP DUP3 PUSH2 0x140 DUP7 ADD MSTORE PUSH32 0x30644E72E131A029B85045B68181585D2833E84879B9709143E1F593F0000001 DUP2 DUP5 MULMOD SWAP3 POP DUP3 PUSH2 0x160 DUP7 ADD MSTORE PUSH32 0x30644E72E131A029B85045B68181585D2833E84879B9709143E1F593F0000001 PUSH1 0x80 PUSH2 0x1E0 DUP7 ADD KECCAK256 MOD PUSH2 0x180 DUP7 ADD MSTORE POP POP POP POP POP POP JUMP JUMPDEST PUSH1 0x1 PUSH32 0x30644E72E131A029B85045B68181585D2833E84879B9709143E1F593F0000001 DUP1 PUSH32 0x30644E72E131A029B85045B68181585D2833E84879B9709143E1F593F0000001 DUP4 PUSH1 0x60 DUP7 ADD MLOAD SUB ADD MOD PUSH2 0x2000 MULMOD PUSH2 0x2A0 DUP4 ADD MSTORE PUSH32 0x30644E72E131A029B85045B68181585D2833E84879B9709143E1F593F0000001 PUSH31 0x6FAB49B869AE62001DEAC878B2667BD31BF3E28E3A2D764AA49B8D9BBDD310 DUP3 MULMOD SWAP1 POP PUSH32 0x30644E72E131A029B85045B68181585D2833E84879B9709143E1F593F0000001 DUP1 PUSH32 0x30644E72E131A029B85045B68181585D2833E84879B9709143E1F593F0000001 DUP4 PUSH1 0x60 DUP7 ADD MLOAD SUB ADD MOD PUSH2 0x2000 MULMOD PUSH2 0x2C0 DUP4 ADD MSTORE PUSH32 0x30644E72E131A029B85045B68181585D2833E84879B9709143E1F593F0000001 PUSH31 0x6FAB49B869AE62001DEAC878B2667BD31BF3E28E3A2D764AA49B8D9BBDD310 DUP3 MULMOD SWAP1 POP PUSH32 0x30644E72E131A029B85045B68181585D2833E84879B9709143E1F593F0000001 DUP1 PUSH32 0x30644E72E131A029B85045B68181585D2833E84879B9709143E1F593F0000001 DUP4 PUSH1 0x60 DUP7 ADD MLOAD SUB ADD MOD PUSH2 0x2000 MULMOD PUSH2 0x2E0 DUP4 ADD MSTORE PUSH32 0x30644E72E131A029B85045B68181585D2833E84879B9709143E1F593F0000001 PUSH31 0x6FAB49B869AE62001DEAC878B2667BD31BF3E28E3A2D764AA49B8D9BBDD310 DUP3 MULMOD SWAP1 POP PUSH32 0x30644E72E131A029B85045B68181585D2833E84879B9709143E1F593F0000001 DUP1 PUSH32 0x30644E72E131A029B85045B68181585D2833E84879B9709143E1F593F0000001 DUP4 PUSH1 0x60 DUP7 ADD MLOAD SUB ADD MOD PUSH2 0x2000 MULMOD PUSH2 0x300 DUP4 ADD MSTORE PUSH32 0x30644E72E131A029B85045B68181585D2833E84879B9709143E1F593F0000001 PUSH31 0x6FAB49B869AE62001DEAC878B2667BD31BF3E28E3A2D764AA49B8D9BBDD310 DUP3 MULMOD SWAP1 POP PUSH32 0x30644E72E131A029B85045B68181585D2833E84879B9709143E1F593F0000001 DUP1 PUSH32 0x30644E72E131A029B85045B68181585D2833E84879B9709143E1F593F0000001 DUP4 PUSH1 0x60 DUP7 ADD MLOAD SUB ADD MOD PUSH2 0x2000 MULMOD PUSH2 0x320 DUP4 ADD MSTORE PUSH2 0xA39 PUSH1 0x6 PUSH2 0x280 DUP5 ADD PUSH2 0xC8 JUMP JUMPDEST PUSH2 0x260 DUP3 ADD MLOAD PUSH1 0x1 SWAP2 POP PUSH32 0x30644E72E131A029B85045B68181585D2833E84879B9709143E1F593F0000001 DUP2 PUSH2 0x2A0 DUP6 ADD MLOAD MULMOD PUSH2 0x2A0 DUP5 ADD MSTORE PUSH32 0x30644E72E131A029B85045B68181585D2833E84879B9709143E1F593F0000001 PUSH31 0x6FAB49B869AE62001DEAC878B2667BD31BF3E28E3A2D764AA49B8D9BBDD310 DUP4 MULMOD SWAP2 POP PUSH32 0x30644E72E131A029B85045B68181585D2833E84879B9709143E1F593F0000001 DUP1 DUP3 PUSH2 0x2C0 DUP7 ADD MLOAD MULMOD DUP4 MULMOD PUSH2 0x2C0 DUP5 ADD MSTORE PUSH32 0x30644E72E131A029B85045B68181585D2833E84879B9709143E1F593F0000001 PUSH31 0x6FAB49B869AE62001DEAC878B2667BD31BF3E28E3A2D764AA49B8D9BBDD310 DUP4 MULMOD SWAP2 POP PUSH32 0x30644E72E131A029B85045B68181585D2833E84879B9709143E1F593F0000001 DUP1 DUP3 PUSH2 0x2E0 DUP7 ADD MLOAD MULMOD DUP4 MULMOD PUSH2 0x2E0 DUP5 ADD MSTORE PUSH32 0x30644E72E131A029B85045B68181585D2833E84879B9709143E1F593F0000001 PUSH31 0x6FAB49B869AE62001DEAC878B2667BD31BF3E28E3A2D764AA49B8D9BBDD310 DUP4 MULMOD SWAP2 POP PUSH32 0x30644E72E131A029B85045B68181585D2833E84879B9709143E1F593F0000001 DUP1 DUP3 PUSH2 0x300 DUP7 ADD MLOAD MULMOD DUP4 MULMOD PUSH2 0x300 DUP5 ADD MSTORE PUSH32 0x30644E72E131A029B85045B68181585D2833E84879B9709143E1F593F0000001 PUSH31 0x6FAB49B869AE62001DEAC878B2667BD31BF3E28E3A2D764AA49B8D9BBDD310 DUP4 MULMOD SWAP2 POP PUSH32 0x30644E72E131A029B85045B68181585D2833E84879B9709143E1F593F0000001 DUP1 DUP3 PUSH2 0x320 DUP7 ADD MLOAD MULMOD DUP4 MULMOD PUSH2 0x320 DUP5 ADD MSTORE POP POP POP JUMP JUMPDEST PUSH1 0x0 PUSH32 0x30644E72E131A029B85045B68181585D2833E84879B9709143E1F593F0000001 DUP1 PUSH32 0x30644E72E131A029B85045B68181585D2833E84879B9709143E1F593F0000001 PUSH1 0x20 DUP7 ADD MLOAD PUSH2 0x2A0 DUP7 ADD MLOAD MULMOD DUP4 SUB ADD MOD SWAP1 POP PUSH32 0x30644E72E131A029B85045B68181585D2833E84879B9709143E1F593F0000001 DUP1 PUSH32 0x30644E72E131A029B85045B68181585D2833E84879B9709143E1F593F0000001 PUSH1 0x40 DUP7 ADD MLOAD PUSH2 0x2C0 DUP7 ADD MLOAD MULMOD DUP4 SUB ADD MOD SWAP1 POP PUSH32 0x30644E72E131A029B85045B68181585D2833E84879B9709143E1F593F0000001 DUP1 PUSH32 0x30644E72E131A029B85045B68181585D2833E84879B9709143E1F593F0000001 PUSH1 0x60 DUP7 ADD MLOAD PUSH2 0x2E0 DUP7 ADD MLOAD MULMOD DUP4 SUB ADD MOD SWAP1 POP PUSH32 0x30644E72E131A029B85045B68181585D2833E84879B9709143E1F593F0000001 DUP1 PUSH32 0x30644E72E131A029B85045B68181585D2833E84879B9709143E1F593F0000001 PUSH1 0x80 DUP7 ADD MLOAD PUSH2 0x300 DUP7 ADD MLOAD MULMOD DUP4 SUB ADD MOD SWAP1 POP PUSH32 0x30644E72E131A029B85045B68181585D2833E84879B9709143E1F593F0000001 DUP1 PUSH32 0x30644E72E131A029B85045B68181585D2833E84879B9709143E1F593F0000001 PUSH1 0xA0 DUP7 ADD MLOAD PUSH2 0x320 DUP7 ADD MLOAD MULMOD DUP4 SUB ADD MOD SWAP1 POP DUP1 PUSH2 0x1A0 DUP4 ADD MSTORE POP POP POP JUMP JUMPDEST PUSH1 0x0 DUP1 PUSH1 0x0 PUSH32 0x30644E72E131A029B85045B68181585D2833E84879B9709143E1F593F0000001 PUSH2 0x1A0 DUP7 ADD MLOAD PUSH2 0x320 DUP7 ADD MLOAD ADDMOD SWAP3 POP PUSH32 0x30644E72E131A029B85045B68181585D2833E84879B9709143E1F593F0000001 PUSH1 0x20 DUP7 ADD MLOAD PUSH2 0x2C0 DUP7 ADD MLOAD MULMOD SWAP2 POP PUSH32 0x30644E72E131A029B85045B68181585D2833E84879B9709143E1F593F0000001 PUSH2 0x260 DUP6 ADD MLOAD DUP4 ADDMOD SWAP2 POP PUSH32 0x30644E72E131A029B85045B68181585D2833E84879B9709143E1F593F0000001 PUSH1 0x40 DUP7 ADD MLOAD DUP4 ADDMOD SWAP2 POP PUSH32 0x30644E72E131A029B85045B68181585D2833E84879B9709143E1F593F0000001 PUSH1 0x20 DUP7 ADD MLOAD PUSH2 0x2E0 DUP7 ADD MLOAD MULMOD SWAP1 POP PUSH32 0x30644E72E131A029B85045B68181585D2833E84879B9709143E1F593F0000001 PUSH2 0x280 DUP6 ADD MLOAD DUP3 ADDMOD SWAP1 POP PUSH32 0x30644E72E131A029B85045B68181585D2833E84879B9709143E1F593F0000001 PUSH1 0x40 DUP7 ADD MLOAD DUP3 ADDMOD SWAP1 POP PUSH32 0x30644E72E131A029B85045B68181585D2833E84879B9709143E1F593F0000001 DUP2 DUP4 MULMOD SWAP2 POP PUSH32 0x30644E72E131A029B85045B68181585D2833E84879B9709143E1F593F0000001 PUSH1 0x40 DUP7 ADD MLOAD PUSH2 0x2A0 DUP7 ADD MLOAD ADDMOD SWAP1 POP PUSH32 0x30644E72E131A029B85045B68181585D2833E84879B9709143E1F593F0000001 DUP2 DUP4 MULMOD SWAP2 POP PUSH32 0x30644E72E131A029B85045B68181585D2833E84879B9709143E1F593F0000001 PUSH2 0x300 DUP6 ADD MLOAD DUP4 MULMOD SWAP2 POP PUSH32 0x30644E72E131A029B85045B68181585D2833E84879B9709143E1F593F0000001 PUSH1 0x0 DUP7 ADD MLOAD DUP4 MULMOD SWAP2 POP PUSH32 0x30644E72E131A029B85045B68181585D2833E84879B9709143E1F593F0000001 PUSH1 0x0 DUP7 ADD MLOAD PUSH2 0x2A0 DUP8 ADD MLOAD MULMOD SWAP1 POP PUSH32 0x30644E72E131A029B85045B68181585D2833E84879B9709143E1F593F0000001 PUSH1 0x0 DUP7 ADD MLOAD DUP3 MULMOD SWAP1 POP PUSH32 0x30644E72E131A029B85045B68181585D2833E84879B9709143E1F593F0000001 DUP2 DUP4 ADDMOD SWAP2 POP PUSH32 0x30644E72E131A029B85045B68181585D2833E84879B9709143E1F593F0000001 DUP3 PUSH32 0x30644E72E131A029B85045B68181585D2833E84879B9709143E1F593F0000001 DUP6 ADD SUB MOD SWAP3 POP PUSH32 0x30644E72E131A029B85045B68181585D2833E84879B9709143E1F593F0000001 PUSH2 0x280 DUP7 ADD MLOAD DUP5 MULMOD SWAP3 POP DUP3 PUSH2 0x1C0 DUP7 ADD MSTORE POP POP POP POP POP JUMP JUMPDEST DUP2 MLOAD DUP2 MSTORE PUSH1 0x20 DUP3 ADD MLOAD PUSH1 0x20 DUP3 ADD MSTORE POP POP JUMP JUMPDEST PUSH1 0x40 MLOAD DUP2 MLOAD DUP2 MSTORE PUSH1 0x20 DUP3 ADD MLOAD PUSH1 0x20 DUP3 ADD MSTORE DUP3 MLOAD PUSH1 0x40 DUP3 ADD MSTORE PUSH1 0x20 DUP4 ADD MLOAD PUSH1 0x60 DUP3 ADD MSTORE PUSH1 0x40 DUP3 PUSH1 0x80 DUP4 PUSH1 0x6 PUSH2 0x7D0 GAS SUB STATICCALL DUP1 PUSH2 0x1169 JUMPI PUSH1 0x0 DUP1 MSTORE PUSH1 0x20 PUSH1 0x0 RETURN JUMPDEST POP POP POP POP JUMP JUMPDEST PUSH1 0x0 PUSH1 0x40 MLOAD DUP4 MLOAD DUP2 MSTORE PUSH1 0x20 DUP5 ADD MLOAD PUSH1 0x20 DUP3 ADD MSTORE DUP5 PUSH1 0x40 DUP3 ADD MSTORE PUSH1 0x40 DUP2 PUSH1 0x60 DUP4 PUSH1 0x7 PUSH2 0x7D0 GAS SUB STATICCALL SWAP2 POP DUP2 PUSH2 0x11A7 JUMPI PUSH1 0x0 DUP1 MSTORE PUSH1 0x20 PUSH1 0x0 RETURN JUMPDEST DUP3 MLOAD PUSH1 0x40 DUP3 ADD MSTORE PUSH1 0x20 DUP4 ADD MLOAD PUSH1 0x60 DUP3 ADD MSTORE PUSH1 0x40 DUP4 PUSH1 0x80 DUP4 PUSH1 0x6 PUSH2 0x7D0 GAS SUB STATICCALL SWAP2 POP DUP2 PUSH2 0x11D7 JUMPI PUSH1 0x0 DUP1 MSTORE PUSH1 0x20 PUSH1 0x0 RETURN JUMPDEST POP POP POP POP POP JUMP JUMPDEST PUSH1 0x0 PUSH1 0x40 MLOAD DUP4 DUP2 MSTORE DUP5 PUSH1 0x20 DUP3 ADD MSTORE DUP6 PUSH1 0x40 DUP3 ADD MSTORE PUSH1 0x40 DUP2 PUSH1 0x60 DUP4 PUSH1 0x7 PUSH2 0x7D0 GAS SUB STATICCALL SWAP2 POP DUP2 PUSH2 0x1211 JUMPI PUSH1 0x0 DUP1 MSTORE PUSH1 0x20 PUSH1 0x0 RETURN JUMPDEST DUP3 MLOAD PUSH1 0x40 DUP3 ADD MSTORE PUSH1 0x20 DUP4 ADD MLOAD PUSH1 0x60 DUP3 ADD MSTORE PUSH1 0x40 DUP4 PUSH1 0x80 DUP4 PUSH1 0x6 PUSH2 0x7D0 GAS SUB STATICCALL SWAP2 POP DUP2 PUSH2 0x1241 JUMPI PUSH1 0x0 DUP1 MSTORE PUSH1 0x20 PUSH1 0x0 RETURN JUMPDEST POP POP POP POP POP POP JUMP JUMPDEST PUSH1 0x0 PUSH1 0x40 MLOAD DUP4 DUP2 MSTORE DUP5 PUSH1 0x20 DUP3 ADD MSTORE DUP6 PUSH1 0x40 DUP3 ADD MSTORE PUSH1 0x40 DUP4 PUSH1 0x60 DUP4 PUSH1 0x7 PUSH2 0x7D0 GAS SUB STATICCALL SWAP2 POP DUP2 PUSH2 0x127C JUMPI PUSH1 0x0 DUP1 MSTORE PUSH1 0x20 PUSH1 0x0 RETURN JUMPDEST POP POP POP POP POP POP JUMP JUMPDEST PUSH2 0x1E0 DUP3 ADD PUSH2 0x1297 PUSH2 0x1E0 DUP4 ADD DUP3 PUSH2 0x1118 JUMP JUMPDEST PUSH2 0x12AB PUSH2 0x180 DUP5 ADD MLOAD PUSH2 0x220 DUP5 ADD DUP4 PUSH2 0x116F JUMP JUMPDEST POP POP POP JUMP JUMPDEST PUSH1 0x0 DUP1 PUSH2 0x220 DUP5 ADD PUSH32 0x30644E72E131A029B85045B68181585D2833E84879B9709143E1F593F0000001 PUSH1 0xC0 DUP7 ADD MLOAD PUSH2 0x260 DUP7 ADD MLOAD MULMOD SWAP3 POP PUSH2 0x1333 DUP4 PUSH32 0xDDC64EC64FEF5B5BA2A1AA3FBE77966DA3195695D2906B3548F1A2DB4C4E255 PUSH32 0x741DE6AA4BFEDE18F1E3E0FFFDCD33893DB9E2ED6484BAF8945F6B613AFE898 DUP5 PUSH2 0x1249 JUMP JUMPDEST PUSH32 0x30644E72E131A029B85045B68181585D2833E84879B9709143E1F593F0000001 PUSH2 0x280 DUP6 ADD MLOAD DUP5 MULMOD SWAP3 POP PUSH2 0x13AA DUP4 PUSH32 0x265695A67B346301CEB363655C5CC8F23792D71C4603DA0C839DE2C0E7E516D7 PUSH32 0x4F5A6522880A6F63CD27C670E8D1D588491A64AE3E2BA54C5CCE20DA0A8F8EE DUP5 PUSH2 0x11DE JUMP JUMPDEST PUSH32 0x30644E72E131A029B85045B68181585D2833E84879B9709143E1F593F0000001 PUSH1 0xC0 DUP7 ADD MLOAD PUSH2 0x280 DUP7 ADD MLOAD MULMOD SWAP3 POP PUSH2 0x1425 DUP4 PUSH32 0xA89064F245DD44981EADADFCFE276069C56B3E01F603AFBD1546D3EA1A47783 PUSH32 0x1C053B585BF8C2D333EF9DF7320055853D424B505F4F3ED8543ED0FE2C7DBD3 DUP5 PUSH2 0x11DE JUMP JUMPDEST PUSH32 0x30644E72E131A029B85045B68181585D2833E84879B9709143E1F593F0000001 PUSH1 0xC0 DUP7 ADD MLOAD PUSH2 0x2A0 DUP7 ADD MLOAD MULMOD SWAP3 POP PUSH2 0x14A0 DUP4 PUSH32 0x1A93C1BB374CB080205ECA5AA0A2715A0C3E3CA3E8B4CA55C67510410530FB3C PUSH32 0x9B3950DBE66E0C259D5A0E13840BEF1F324100895A6F85EE4E395176381ECC9 DUP5 PUSH2 0x11DE JUMP JUMPDEST PUSH1 0xC0 DUP6 ADD MLOAD SWAP3 POP PUSH2 0x14F3 DUP4 PUSH32 0x27B2296D59CC6CC2816EC1DB0785B80C3BE4B2686ECE4159D13F7B2854866B51 PUSH32 0x230AD93D4814194F3678A9CEDB99455467A520FE3A553438774BA3309492A6F DUP5 PUSH2 0x11DE JUMP JUMPDEST PUSH32 0x30644E72E131A029B85045B68181585D2833E84879B9709143E1F593F0000001 PUSH1 0xA0 DUP7 ADD MLOAD PUSH2 0x260 DUP7 ADD MLOAD ADDMOD SWAP3 POP PUSH32 0x30644E72E131A029B85045B68181585D2833E84879B9709143E1F593F0000001 PUSH1 0x40 DUP7 ADD MLOAD DUP5 ADDMOD SWAP3 POP PUSH32 0x30644E72E131A029B85045B68181585D2833E84879B9709143E1F593F0000001 PUSH1 0xA0 DUP7 ADD MLOAD PUSH1 0x2 MULMOD SWAP2 POP PUSH32 0x30644E72E131A029B85045B68181585D2833E84879B9709143E1F593F0000001 PUSH2 0x280 DUP6 ADD MLOAD DUP4 ADDMOD SWAP2 POP PUSH32 0x30644E72E131A029B85045B68181585D2833E84879B9709143E1F593F0000001 PUSH1 0x40 DUP7 ADD MLOAD DUP4 ADDMOD SWAP2 POP PUSH32 0x30644E72E131A029B85045B68181585D2833E84879B9709143E1F593F0000001 DUP3 DUP5 MULMOD SWAP3 POP PUSH32 0x30644E72E131A029B85045B68181585D2833E84879B9709143E1F593F0000001 PUSH1 0xA0 DUP7 ADD MLOAD PUSH1 0x3 MULMOD SWAP2 POP PUSH32 0x30644E72E131A029B85045B68181585D2833E84879B9709143E1F593F0000001 PUSH2 0x2A0 DUP6 ADD MLOAD DUP4 ADDMOD SWAP2 POP PUSH32 0x30644E72E131A029B85045B68181585D2833E84879B9709143E1F593F0000001 PUSH1 0x40 DUP7 ADD MLOAD DUP4 ADDMOD SWAP2 POP PUSH32 0x30644E72E131A029B85045B68181585D2833E84879B9709143E1F593F0000001 DUP3 DUP5 MULMOD SWAP3 POP PUSH32 0x30644E72E131A029B85045B68181585D2833E84879B9709143E1F593F0000001 PUSH1 0x0 DUP7 ADD MLOAD DUP5 MULMOD SWAP3 POP PUSH32 0x30644E72E131A029B85045B68181585D2833E84879B9709143E1F593F0000001 PUSH1 0xC0 DUP7 ADD MLOAD DUP5 MULMOD SWAP3 POP PUSH32 0x30644E72E131A029B85045B68181585D2833E84879B9709143E1F593F0000001 PUSH1 0x0 DUP7 ADD MLOAD PUSH2 0x2A0 DUP8 ADD MLOAD MULMOD SWAP2 POP PUSH32 0x30644E72E131A029B85045B68181585D2833E84879B9709143E1F593F0000001 PUSH1 0x0 DUP7 ADD MLOAD DUP4 MULMOD SWAP2 POP PUSH32 0x30644E72E131A029B85045B68181585D2833E84879B9709143E1F593F0000001 PUSH1 0xC0 DUP7 ADD MLOAD DUP4 MULMOD SWAP2 POP PUSH32 0x30644E72E131A029B85045B68181585D2833E84879B9709143E1F593F0000001 DUP3 DUP5 ADDMOD SWAP3 POP PUSH32 0x30644E72E131A029B85045B68181585D2833E84879B9709143E1F593F0000001 PUSH2 0x180 DUP7 ADD MLOAD DUP5 ADDMOD SWAP3 POP PUSH2 0x17CE DUP4 PUSH1 0xE0 DUP7 ADD DUP4 PUSH2 0x116F JUMP JUMPDEST PUSH32 0x30644E72E131A029B85045B68181585D2833E84879B9709143E1F593F0000001 PUSH2 0x2C0 DUP6 ADD MLOAD PUSH1 0x20 DUP8 ADD MLOAD MULMOD SWAP3 POP PUSH32 0x30644E72E131A029B85045B68181585D2833E84879B9709143E1F593F0000001 PUSH2 0x260 DUP6 ADD MLOAD DUP5 ADDMOD SWAP3 POP PUSH32 0x30644E72E131A029B85045B68181585D2833E84879B9709143E1F593F0000001 PUSH1 0x40 DUP7 ADD MLOAD DUP5 ADDMOD SWAP3 POP PUSH32 0x30644E72E131A029B85045B68181585D2833E84879B9709143E1F593F0000001 PUSH2 0x2E0 DUP6 ADD MLOAD PUSH1 0x20 DUP8 ADD MLOAD MULMOD SWAP2 POP PUSH32 0x30644E72E131A029B85045B68181585D2833E84879B9709143E1F593F0000001 PUSH2 0x280 DUP6 ADD MLOAD DUP4 ADDMOD SWAP2 POP PUSH32 0x30644E72E131A029B85045B68181585D2833E84879B9709143E1F593F0000001 PUSH1 0x40 DUP7 ADD MLOAD DUP4 ADDMOD SWAP2 POP PUSH32 0x30644E72E131A029B85045B68181585D2833E84879B9709143E1F593F0000001 DUP3 DUP5 MULMOD SWAP3 POP PUSH32 0x30644E72E131A029B85045B68181585D2833E84879B9709143E1F593F0000001 PUSH1 0x0 DUP7 ADD MLOAD DUP5 MULMOD SWAP3 POP PUSH32 0x30644E72E131A029B85045B68181585D2833E84879B9709143E1F593F0000001 PUSH1 0xC0 DUP7 ADD MLOAD DUP5 MULMOD SWAP3 POP PUSH32 0x30644E72E131A029B85045B68181585D2833E84879B9709143E1F593F0000001 PUSH1 0x20 DUP7 ADD MLOAD DUP5 MULMOD SWAP3 POP PUSH32 0x30644E72E131A029B85045B68181585D2833E84879B9709143E1F593F0000001 PUSH2 0x300 DUP6 ADD MLOAD DUP5 MULMOD SWAP3 POP PUSH32 0x30644E72E131A029B85045B68181585D2833E84879B9709143E1F593F0000001 DUP4 PUSH32 0x30644E72E131A029B85045B68181585D2833E84879B9709143E1F593F0000001 SUB MOD SWAP3 POP PUSH2 0x1A38 DUP4 PUSH32 0xE74D86F1AF0F0D37AB07210CDE502978FB729779EAF88331C6FB5B89B5A6CB9 PUSH32 0x26A08D8E70826AF781B344F52402265622582F45C26E4CE38D9F7F9025C81FFF DUP5 PUSH2 0x11DE JUMP JUMPDEST PUSH2 0x1A46 PUSH2 0x120 DUP6 ADD DUP3 PUSH2 0x112A JUMP JUMPDEST PUSH1 0x80 DUP6 ADD MLOAD SWAP3 POP PUSH2 0x1A5C DUP4 PUSH2 0x160 DUP7 ADD DUP4 PUSH2 0x116F JUMP JUMPDEST PUSH32 0x30644E72E131A029B85045B68181585D2833E84879B9709143E1F593F0000001 DUP4 DUP5 MULMOD SWAP3 POP PUSH2 0x1A91 DUP4 PUSH2 0x1A0 DUP7 ADD DUP4 PUSH2 0x116F JUMP JUMPDEST PUSH2 0x1AA3 PUSH1 0xE0 DUP7 ADD MLOAD PUSH1 0x20 DUP7 ADD DUP4 PUSH2 0x116F JUMP JUMPDEST PUSH2 0x1AB6 PUSH2 0x100 DUP7 ADD MLOAD PUSH1 0x60 DUP7 ADD DUP4 PUSH2 0x116F JUMP JUMPDEST PUSH2 0x1AC9 PUSH2 0x120 DUP7 ADD MLOAD PUSH1 0xA0 DUP7 ADD DUP4 PUSH2 0x116F JUMP JUMPDEST PUSH2 0x1B1A PUSH2 0x140 DUP7 ADD MLOAD PUSH32 0x218D29C7D20E9CC6610F0BFF3934FB0B980EF2521EC498EB05DF20F7FD97778C PUSH32 0x2FDDCAC2DAEB12C2720187606868E7078B4CB79B45415C7056D3D7A277082D0B DUP5 PUSH2 0x11DE JUMP JUMPDEST PUSH2 0x1B6B PUSH2 0x160 DUP7 ADD MLOAD PUSH32 0x139C03AF025A8236E5648C62CB1FE777C5A963E3B85C578FBCC60D6C7D3438D6 PUSH32 0xF8629C8B8050B37587F30F759AD91D97F48682FF2331302CC50402227ABB253 DUP5 PUSH2 0x11DE JUMP JUMPDEST PUSH2 0x1C0 DUP6 ADD MLOAD SWAP3 POP PUSH32 0x30644E72E131A029B85045B68181585D2833E84879B9709143E1F593F0000001 DUP1 PUSH1 0xC0 DUP8 ADD MLOAD PUSH2 0x320 DUP8 ADD MLOAD MULMOD DUP5 ADDMOD SWAP3 POP PUSH32 0x30644E72E131A029B85045B68181585D2833E84879B9709143E1F593F0000001 DUP1 PUSH1 0xE0 DUP8 ADD MLOAD PUSH2 0x260 DUP8 ADD MLOAD MULMOD DUP5 ADDMOD SWAP3 POP PUSH32 0x30644E72E131A029B85045B68181585D2833E84879B9709143E1F593F0000001 DUP1 PUSH2 0x100 DUP8 ADD MLOAD PUSH2 0x280 DUP8 ADD MLOAD MULMOD DUP5 ADDMOD SWAP3 POP PUSH32 0x30644E72E131A029B85045B68181585D2833E84879B9709143E1F593F0000001 DUP1 PUSH2 0x120 DUP8 ADD MLOAD PUSH2 0x2A0 DUP8 ADD MLOAD MULMOD DUP5 ADDMOD SWAP3 POP PUSH32 0x30644E72E131A029B85045B68181585D2833E84879B9709143E1F593F0000001 DUP1 PUSH2 0x140 DUP8 ADD MLOAD PUSH2 0x2C0 DUP8 ADD MLOAD MULMOD DUP5 ADDMOD SWAP3 POP PUSH32 0x30644E72E131A029B85045B68181585D2833E84879B9709143E1F593F0000001 DUP1 PUSH2 0x160 DUP8 ADD MLOAD PUSH2 0x2E0 DUP8 ADD MLOAD MULMOD DUP5 ADDMOD SWAP3 POP PUSH32 0x30644E72E131A029B85045B68181585D2833E84879B9709143E1F593F0000001 DUP1 PUSH2 0x180 DUP8 ADD MLOAD PUSH2 0x300 DUP8 ADD MLOAD MULMOD DUP5 ADDMOD SWAP3 POP PUSH32 0x30644E72E131A029B85045B68181585D2833E84879B9709143E1F593F0000001 DUP4 PUSH32 0x30644E72E131A029B85045B68181585D2833E84879B9709143E1F593F0000001 SUB MOD SWAP3 POP PUSH2 0x1D2B DUP4 PUSH1 0x2 PUSH1 0x1 DUP5 PUSH2 0x11DE JUMP JUMPDEST PUSH1 0x60 DUP6 ADD MLOAD SWAP3 POP PUSH2 0x1D41 DUP4 PUSH2 0x1E0 DUP7 ADD DUP4 PUSH2 0x116F JUMP JUMPDEST PUSH32 0x30644E72E131A029B85045B68181585D2833E84879B9709143E1F593F0000001 PUSH1 0x60 DUP7 ADD MLOAD PUSH2 0x180 DUP8 ADD MLOAD MULMOD SWAP3 POP PUSH32 0x30644E72E131A029B85045B68181585D2833E84879B9709143E1F593F0000001 PUSH31 0x6FAB49B869AE62001DEAC878B2667BD31BF3E28E3A2D764AA49B8D9BBDD310 DUP5 MULMOD SWAP3 POP PUSH2 0x1DC4 DUP4 PUSH2 0x220 DUP7 ADD DUP4 PUSH2 0x116F JUMP JUMPDEST POP POP POP POP POP JUMP JUMPDEST PUSH1 0x0 PUSH1 0x40 MLOAD PUSH2 0x1E0 DUP4 ADD MLOAD DUP2 MSTORE PUSH1 0x20 PUSH2 0x1E0 DUP5 ADD ADD MLOAD PUSH1 0x20 DUP3 ADD MSTORE PUSH32 0xA6A1935DF795D32D04C19AD651D34C0AD64F4062DF4F8E84D07C8EE170E1DCE PUSH1 0x40 DUP3 ADD MSTORE PUSH32 0x19439D3DD0B08CB10777679AC9DB57CCCD6460F3FC802557E8FCA5BC0403B7C5 PUSH1 0x60 DUP3 ADD MSTORE PUSH32 0x2785488717F1D0F28F4EC5D2FC6A21AE92D9C8253E1AEE898163131BAD2E2721 PUSH1 0x80 DUP3 ADD MSTORE PUSH32 0x1CA6522C0C0B310952D5132103D40DA2FCEEC4306150D28882D4ED087A88E2A5 PUSH1 0xA0 DUP3 ADD MSTORE PUSH2 0x220 DUP4 ADD MLOAD PUSH1 0xC0 DUP3 ADD MSTORE PUSH1 0x20 PUSH2 0x220 DUP5 ADD ADD MLOAD PUSH32 0x30644E72E131A029B85045B68181585D97816A916871CA8D3C208C16D87CFD47 DUP2 PUSH32 0x30644E72E131A029B85045B68181585D97816A916871CA8D3C208C16D87CFD47 SUB MOD SWAP1 POP DUP1 PUSH1 0xE0 DUP4 ADD MSTORE PUSH32 0x198E9393920D483A7260BFB731FB5D25F1AA493335A9E71297E485B7AEF312C2 PUSH2 0x100 DUP4 ADD MSTORE PUSH32 0x1800DEEF121F1E76426A00665E5C4479674322D4F75EDADD46DEBD5CD992F6ED PUSH2 0x120 DUP4 ADD MSTORE PUSH32 0x90689D0585FF075EC9E99AD690C3395BC4B313370B38EF355ACDADCD122975B PUSH2 0x140 DUP4 ADD MSTORE PUSH32 0x12C85EA5DB8C6DEB4AAB71808DCB408FE3D1E7690C43D37B4CE6CC0166FA7DAA PUSH2 0x160 DUP4 ADD MSTORE PUSH1 0x20 DUP3 PUSH2 0x180 DUP5 PUSH1 0x8 PUSH2 0x7D0 GAS SUB STATICCALL DUP3 MLOAD DUP2 AND SWAP4 POP POP POP POP SWAP2 SWAP1 POP JUMP JUMPDEST PUSH1 0x40 MLOAD PUSH2 0x340 DUP2 ADD PUSH1 0x40 MSTORE PUSH2 0x1FAC DUP5 PUSH2 0x206 JUMP JUMPDEST PUSH2 0x1FB7 DUP4 DUP3 DUP7 PUSH2 0x27F JUMP JUMPDEST PUSH2 0x1FC0 DUP2 PUSH2 0x766 JUMP JUMPDEST PUSH2 0x1FCA DUP4 DUP3 PUSH2 0xC53 JUMP JUMPDEST PUSH2 0x1FD4 DUP2 DUP6 PUSH2 0xE0A JUMP JUMPDEST PUSH2 0x1FDE DUP2 DUP6 PUSH2 0x1284 JUMP JUMPDEST PUSH2 0x1FE8 DUP2 DUP6 PUSH2 0x12B0 JUMP JUMPDEST PUSH2 0x1FF1 DUP2 PUSH2 0x1DCB JUMP JUMPDEST PUSH2 0x340 DUP3 SUB PUSH1 0x40 MSTORE DUP1 PUSH1 0x0 MSTORE PUSH1 0x20 PUSH1 0x0 RETURN JUMPDEST PUSH1 0x0 PUSH2 0x2016 PUSH2 0x2011 DUP5 PUSH2 0x21D1 JUMP JUMPDEST PUSH2 0x21AC JUMP JUMPDEST SWAP1 POP DUP1 DUP4 DUP3 MSTORE PUSH1 0x20 DUP3 ADD SWAP1 POP DUP3 DUP6 PUSH1 0x20 DUP7 MUL DUP3 ADD GT ISZERO PUSH2 0x2035 JUMPI PUSH1 0x0 DUP1 REVERT JUMPDEST PUSH1 0x0 JUMPDEST DUP6 DUP2 LT ISZERO PUSH2 0x2065 JUMPI DUP2 PUSH2 0x204B DUP9 DUP3 PUSH2 0x2101 JUMP JUMPDEST DUP5 MSTORE PUSH1 0x20 DUP5 ADD SWAP4 POP PUSH1 0x20 DUP4 ADD SWAP3 POP POP PUSH1 0x1 DUP2 ADD SWAP1 POP PUSH2 0x2038 JUMP JUMPDEST POP POP POP SWAP4 SWAP3 POP POP POP JUMP JUMPDEST PUSH1 0x0 PUSH2 0x2082 PUSH2 0x207D DUP5 PUSH2 0x21FD JUMP JUMPDEST PUSH2 0x21AC JUMP JUMPDEST SWAP1 POP DUP3 DUP2 MSTORE PUSH1 0x20 DUP2 ADD DUP5 DUP5 DUP5 ADD GT ISZERO PUSH2 0x209A JUMPI PUSH1 0x0 DUP1 REVERT JUMPDEST PUSH2 0x20A5 DUP5 DUP3 DUP6 PUSH2 0x2244 JUMP JUMPDEST POP SWAP4 SWAP3 POP POP POP JUMP JUMPDEST PUSH1 0x0 DUP3 PUSH1 0x1F DUP4 ADD SLT PUSH2 0x20BE JUMPI PUSH1 0x0 DUP1 REVERT JUMPDEST DUP2 CALLDATALOAD PUSH2 0x20CE DUP5 DUP3 PUSH1 0x20 DUP7 ADD PUSH2 0x2003 JUMP JUMPDEST SWAP2 POP POP SWAP3 SWAP2 POP POP JUMP JUMPDEST PUSH1 0x0 DUP3 PUSH1 0x1F DUP4 ADD SLT PUSH2 0x20E8 JUMPI PUSH1 0x0 DUP1 REVERT JUMPDEST DUP2 CALLDATALOAD PUSH2 0x20F8 DUP5 DUP3 PUSH1 0x20 DUP7 ADD PUSH2 0x206F JUMP JUMPDEST SWAP2 POP POP SWAP3 SWAP2 POP POP JUMP JUMPDEST PUSH1 0x0 DUP2 CALLDATALOAD SWAP1 POP PUSH2 0x2110 DUP2 PUSH2 0x22C4 JUMP JUMPDEST SWAP3 SWAP2 POP POP JUMP JUMPDEST PUSH1 0x0 DUP1 PUSH1 0x40 DUP4 DUP6 SUB SLT ISZERO PUSH2 0x2129 JUMPI PUSH1 0x0 DUP1 REVERT JUMPDEST PUSH1 0x0 DUP4 ADD CALLDATALOAD PUSH8 0xFFFFFFFFFFFFFFFF DUP2 GT ISZERO PUSH2 0x2143 JUMPI PUSH1 0x0 DUP1 REVERT JUMPDEST PUSH2 0x214F DUP6 DUP3 DUP7 ADD PUSH2 0x20D7 JUMP JUMPDEST SWAP3 POP POP PUSH1 0x20 DUP4 ADD CALLDATALOAD PUSH8 0xFFFFFFFFFFFFFFFF DUP2 GT ISZERO PUSH2 0x216C JUMPI PUSH1 0x0 DUP1 REVERT JUMPDEST PUSH2 0x2178 DUP6 DUP3 DUP7 ADD PUSH2 0x20AD JUMP JUMPDEST SWAP2 POP POP SWAP3 POP SWAP3 SWAP1 POP JUMP JUMPDEST PUSH2 0x218B DUP2 PUSH2 0x222E JUMP JUMPDEST DUP3 MSTORE POP POP JUMP JUMPDEST PUSH1 0x0 PUSH1 0x20 DUP3 ADD SWAP1 POP PUSH2 0x21A6 PUSH1 0x0 DUP4 ADD DUP5 PUSH2 0x2182 JUMP JUMPDEST SWAP3 SWAP2 POP POP JUMP JUMPDEST PUSH1 0x0 PUSH2 0x21B6 PUSH2 0x21C7 JUMP JUMPDEST SWAP1 POP PUSH2 0x21C2 DUP3 DUP3 PUSH2 0x2253 JUMP JUMPDEST SWAP2 SWAP1 POP JUMP JUMPDEST PUSH1 0x0 PUSH1 0x40 MLOAD SWAP1 POP SWAP1 JUMP JUMPDEST PUSH1 0x0 PUSH8 0xFFFFFFFFFFFFFFFF DUP3 GT ISZERO PUSH2 0x21EC JUMPI PUSH2 0x21EB PUSH2 0x2284 JUMP JUMPDEST JUMPDEST PUSH1 0x20 DUP3 MUL SWAP1 POP PUSH1 0x20 DUP2 ADD SWAP1 POP SWAP2 SWAP1 POP JUMP JUMPDEST PUSH1 0x0 PUSH8 0xFFFFFFFFFFFFFFFF DUP3 GT ISZERO PUSH2 0x2218 JUMPI PUSH2 0x2217 PUSH2 0x2284 JUMP JUMPDEST JUMPDEST PUSH2 0x2221 DUP3 PUSH2 0x22B3 JUMP JUMPDEST SWAP1 POP PUSH1 0x20 DUP2 ADD SWAP1 POP SWAP2 SWAP1 POP JUMP JUMPDEST PUSH1 0x0 DUP2 ISZERO ISZERO SWAP1 POP SWAP2 SWAP1 POP JUMP JUMPDEST PUSH1 0x0 DUP2 SWAP1 POP SWAP2 SWAP1 POP JUMP JUMPDEST DUP3 DUP2 DUP4 CALLDATACOPY PUSH1 0x0 DUP4 DUP4 ADD MSTORE POP POP POP JUMP JUMPDEST PUSH2 0x225C DUP3 PUSH2 0x22B3 JUMP JUMPDEST DUP2 ADD DUP2 DUP2 LT PUSH8 0xFFFFFFFFFFFFFFFF DUP3 GT OR ISZERO PUSH2 0x227B JUMPI PUSH2 0x227A PUSH2 0x2284 JUMP JUMPDEST JUMPDEST DUP1 PUSH1 0x40 MSTORE POP POP POP JUMP JUMPDEST PUSH32 0x4E487B7100000000000000000000000000000000000000000000000000000000 PUSH1 0x0 MSTORE PUSH1 0x41 PUSH1 0x4 MSTORE PUSH1 0x24 PUSH1 0x0 REVERT JUMPDEST PUSH1 0x0 PUSH1 0x1F NOT PUSH1 0x1F DUP4 ADD AND SWAP1 POP SWAP2 SWAP1 POP JUMP JUMPDEST PUSH2 0x22CD DUP2 PUSH2 0x223A JUMP JUMPDEST DUP2 EQ PUSH2 0x22D8 JUMPI PUSH1 0x0 DUP1 REVERT JUMPDEST POP JUMP INVALID LOG2 PUSH5 0x6970667358 0x22 SLT KECCAK256 DUP8 SHR SWAP13 0xB3 0x4E 0xBA 0xDA DUP13 COINBASE 0xBB ADDMOD SWAP7 0xD3 PUSH31 0x34F08CF2C1EFAE4D7D40A9D54919247E0AC764736F6C634300080400330000 "
		},
		"gasEstimates": {
			"creation": {
				"codeDepositCost": "1795400",
				"executionCost": "1891",
				"totalCost": "1797291"
			},
			"external": {
				"verifyProof(bytes,uint256[])": "infinite"
			}
		},
		"methodIdentifiers": {
			"verifyProof(bytes,uint256[])": "1e8e1e13"
		}
	},
	"abi": [
		{
			"inputs": [
				{
					"internalType": "bytes",
					"name": "proof",
					"type": "bytes"
				},
				{
					"internalType": "uint256[]",
					"name": "pubSignals",
					"type": "uint256[]"
				}
			],
			"name": "verifyProof",
			"outputs": [
				{
					"internalType": "bool",
					"name": "",
					"type": "bool"
				}
			],
			"stateMutability": "view",
			"type": "function"
		}
	]
}